{
  "contractName": "Contract",
  "abi": [
    {
      "inputs": [],
      "stateMutability": "nonpayable",
      "type": "constructor"
    },
    {
      "inputs": [
        {
          "internalType": "uint256",
          "name": "",
          "type": "uint256"
        }
      ],
      "name": "DrIDs",
      "outputs": [
        {
          "internalType": "address",
          "name": "",
          "type": "address"
        }
      ],
      "stateMutability": "view",
      "type": "function",
      "constant": true
    },
    {
      "inputs": [],
      "name": "isAdmin",
      "outputs": [
        {
          "internalType": "bool",
          "name": "",
          "type": "bool"
        }
      ],
      "stateMutability": "view",
      "type": "function",
      "constant": true
    },
    {
      "inputs": [
        {
          "internalType": "address",
          "name": "dr_id",
          "type": "address"
        },
        {
          "internalType": "string",
          "name": "_drInfo_hash",
          "type": "string"
        }
      ],
      "name": "addDrInfo",
      "outputs": [],
      "stateMutability": "nonpayable",
      "type": "function"
    },
    {
      "inputs": [],
      "name": "getAllDrs",
      "outputs": [
        {
          "internalType": "address[]",
          "name": "",
          "type": "address[]"
        }
      ],
      "stateMutability": "view",
      "type": "function",
      "constant": true
    },
    {
      "inputs": [
        {
          "internalType": "address",
          "name": "_id",
          "type": "address"
        }
      ],
      "name": "getDr",
      "outputs": [
        {
          "internalType": "string",
          "name": "",
          "type": "string"
        }
      ],
      "stateMutability": "view",
      "type": "function",
      "constant": true
    },
    {
      "inputs": [
        {
          "internalType": "address",
          "name": "id",
          "type": "address"
        }
      ],
      "name": "isDr",
      "outputs": [
        {
          "internalType": "bool",
          "name": "",
          "type": "bool"
        }
      ],
      "stateMutability": "view",
      "type": "function",
      "constant": true
    }
  ],
  "bytecode": "0x608060405234801561001057600080fd5b5061002933600061002e60201b6103581790919060201c565b610132565b61003882826100af565b1561008a5760405162461bcd60e51b815260206004820152601f60248201527f526f6c65733a206163636f756e7420616c72656164792068617320726f6c650060448201526064015b60405180910390fd5b6001600160a01b0316600090815260209190915260409020805460ff19166001179055565b60006001600160a01b0382166101125760405162461bcd60e51b815260206004820152602260248201527f526f6c65733a206163636f756e7420697320746865207a65726f206164647265604482015261737360f01b6064820152608401610081565b506001600160a01b03166000908152602091909152604090205460ff1690565b610732806101416000396000f3fe608060405234801561001057600080fd5b50600436106100625760003560e01c806317335a95146100675780631da3e2dc1461007c578063b6db75a01461009a578063bb13227c146100b2578063be956873146100dd578063d4fd45c4146100f0575b600080fd5b61007a610075366004610522565b610110565b005b6100846101f9565b60405161009191906105e4565b60405180910390f35b6100a261025b565b6040519015158152602001610091565b6100c56100c0366004610631565b61026c565b6040516001600160a01b039091168152602001610091565b6100a26100eb36600461064a565b610296565b6101036100fe36600461064a565b6102a9565b604051610091919061066c565b61011b6000336103d4565b61015d5760405162461bcd60e51b815260206004820152600e60248201526d27b7363c902337b91020b236b4b760911b60448201526064015b60405180910390fd5b6001600160a01b038216600081815260026020908152604090912080546001600160a01b0319169092178255825161019d91600184019190850190610457565b5060038054600180820183556000929092527fc2575a0e9e593c00f959f8c92f12db2869c3395a3b0502d05e2516446f71f85b0180546001600160a01b0319166001600160a01b0386161790556101f49084610358565b505050565b6060600380548060200260200160405190810160405280929190818152602001828054801561025157602002820191906000526020600020905b81546001600160a01b03168152600190910190602001808311610233575b5050505050905090565b600061026781336103d4565b905090565b6003818154811061027c57600080fd5b6000918252602090912001546001600160a01b0316905081565b60006102a36001836103d4565b92915050565b6001600160a01b03811660009081526002602052604090206001018054606091906102d3906106c1565b80601f01602080910402602001604051908101604052809291908181526020018280546102ff906106c1565b801561034c5780601f106103215761010080835404028352916020019161034c565b820191906000526020600020905b81548152906001019060200180831161032f57829003601f168201915b50505050509050919050565b61036282826103d4565b156103af5760405162461bcd60e51b815260206004820152601f60248201527f526f6c65733a206163636f756e7420616c72656164792068617320726f6c65006044820152606401610154565b6001600160a01b0316600090815260209190915260409020805460ff19166001179055565b60006001600160a01b0382166104375760405162461bcd60e51b815260206004820152602260248201527f526f6c65733a206163636f756e7420697320746865207a65726f206164647265604482015261737360f01b6064820152608401610154565b506001600160a01b03166000908152602091909152604090205460ff1690565b828054610463906106c1565b90600052602060002090601f01602090048101928261048557600085556104cb565b82601f1061049e57805160ff19168380011785556104cb565b828001600101855582156104cb579182015b828111156104cb5782518255916020019190600101906104b0565b506104d79291506104db565b5090565b5b808211156104d757600081556001016104dc565b80356001600160a01b038116811461050757600080fd5b919050565b634e487b7160e01b600052604160045260246000fd5b6000806040838503121561053557600080fd5b61053e836104f0565b9150602083013567ffffffffffffffff8082111561055b57600080fd5b818501915085601f83011261056f57600080fd5b8135818111156105815761058161050c565b604051601f8201601f19908116603f011681019083821181831017156105a9576105a961050c565b816040528281528860208487010111156105c257600080fd5b8260208601602083013760006020848301015280955050505050509250929050565b6020808252825182820181905260009190848201906040850190845b818110156106255783516001600160a01b031683529284019291840191600101610600565b50909695505050505050565b60006020828403121561064357600080fd5b5035919050565b60006020828403121561065c57600080fd5b610665826104f0565b9392505050565b600060208083528351808285015260005b818110156106995785810183015185820160400152820161067d565b818111156106ab576000604083870101525b50601f01601f1916929092016040019392505050565b600181811c908216806106d557607f821691505b602082108114156106f657634e487b7160e01b600052602260045260246000fd5b5091905056fea26469706673582212207eb15b29ca48364f52ae356d2f257873f0ced52735bb0b222f491de10f1c72c864736f6c634300080b0033",
  "immutableReferences": {},
  "source": "// SPDX-License-Identifier: MIT\r\npragma solidity >=0.4.21;\r\n\r\nimport \"./Roles.sol\";\r\n\r\ncontract Contract {\r\n  using Roles for Roles.Role;\r\n\r\n  Roles.Role private admin;\r\n  Roles.Role private doctor;\r\n\r\n  struct Doctor {\r\n    address id;\r\n    string drHash;\r\n  }\r\n\r\n  mapping(address => Doctor) Doctors;\r\n\r\n  address[] public DrIDs;\r\n\r\n  constructor() {\r\n    admin.add(msg.sender);\r\n  }\r\n\r\n  //get Admin\r\n\r\n  function isAdmin() public view returns (bool) {\r\n    return admin.has(msg.sender);\r\n  }\r\n\r\n  //Add Doctor\r\n\r\n  function addDrInfo(address dr_id, string memory _drInfo_hash) public {\r\n    require(admin.has(msg.sender), \"Only For Admin\");\r\n\r\n    Doctor storage drInfo = Doctors[dr_id];\r\n    drInfo.id = dr_id;\r\n    drInfo.drHash = _drInfo_hash;\r\n    DrIDs.push(dr_id);\r\n\r\n    doctor.add(dr_id);\r\n  }\r\n\r\n  function getAllDrs() public view returns (address[] memory) {\r\n    return DrIDs;\r\n  }\r\n\r\n  function getDr(address _id) public view returns (string memory) {\r\n    return (Doctors[_id].drHash);\r\n  }\r\n\r\n  // check is Doctor\r\n\r\n  function isDr(address id) public view returns (bool) {\r\n    return doctor.has(id);\r\n  }\r\n\r\n}\r\n",
  "sourcePath": "/Users/vedanta/Documents/VSCode/ehr-blockchain/contracts/Contract.sol",
  "compiler": {
    "name": "solc",
    "version": "0.8.11+commit.d7f03943.Emscripten.clang"
  },
  "schemaVersion": "3.4.16",
  "updatedAt": "2023-09-16T01:41:33.756Z",
  "networkType": "ethereum",
  "devdoc": {
    "kind": "dev",
    "methods": {},
    "version": 1
  },
  "userdoc": {
    "kind": "user",
    "methods": {},
    "version": 1
  }
}